S011000041746D6567613332612E73726563FE
S11300000C942A000C941B020C9444020C946D0270
S11300100C943C000C943C000C943C000C943C006C
S11300200C943C000C943C000C943C000C943C005C
S11300300C943C000C943C000C943C000C943C004C
S11300400C943C000C943C000C943C000C943C003C
S11300500C943C0011241FBECFE5D8E0DEBFCDBF19
S113006020E0A0E6B0E001C01D92A636B207E1F799
S11300700E9496000C9496020C940000CF93DF9398
S1130080C0E0D0E021C041E066E083E00E9450017E
S113009040E065E083E00E94500183E294EF019721
S11300A0F1F700C0000040E066E083E00E945001E8
S11300B040E065E083E00E94500183E294EF019701
S11300C0F1F700C000002196C530D105E4F2DF91BC
S11300D0CF910895CF93DF93C0E0D0E021C040E0FA
S11300E066E083E00E94500141E065E083E00E9405
S11300F0500183E294EF0197F1F700C0000040E063
S113010066E083E00E94500140E065E083E00E94E5
S1130110500183E294EF0197F1F700C000002196AB
S1130120C530D105E4F2DF91CF91089582E00E94B9
S1130130C10182E00E94EE010E94BD0141E066E03F
S113014083E00E94E30041E065E083E00E94E30075
S113015040E062E083E00E94E30041E062E083E08B
S11301600E94500140E063E083E00E94E30041E02C
S113017063E083E00E94500140E065E083E00E9478
S1130180500141E066E083E00E9450012FE38DE0DE
S113019093E0215080409040E1F700C0000040E02F
S11301A066E083E00E94500141E065E083E00E9444
S11301B050012FE38DE093E0215080409040E1F71F
S11301C000C00000D9CF813001F130F08230B1F1AC
S11301D0833009F44CC00895442359F02AB381E0D4
S11301E090E002C0880F991F6A95E2F7822B8ABBC0
S11301F008952AB381E090E002C0880F991F6A95A0
S1130200E2F7809582238ABB0895442359F027B3EB
S113021081E090E002C0880F991F6A95E2F7822B73
S113022087BB089527B381E090E002C0880F991F2F
S11302306A95E2F78095822387BB0895442359F099
S113024024B381E090E002C0880F991F6A95E2F719
S1130250822B84BB089524B381E090E002C0880F10
S1130260991F6A95E2F78095822384BB08954423FD
S113027059F021B381E090E002C0880F991F6A957C
S1130280E2F7822B81BB089521B381E090E002C0A4
S1130290880F991F6A95E2F78095822381BB0895A0
S11302A0813001F130F08230B1F1833009F44CC077
S11302B00895442359F02BB381E090E002C0880FE5
S11302C0991F6A95E2F7822B8BBB08952BB381E0CB
S11302D090E002C0880F991F6A95E2F78095822307
S11302E08BBB0895442359F028B381E090E002C009
S11302F0880F991F6A95E2F7822B88BB089528B36B
S113030081E090E002C0880F991F6A95E2F780951A
S1130310822388BB0895442359F025B381E090E0FB
S113032002C0880F991F6A95E2F7822B85BB089556
S113033025B381E090E002C0880F991F6A95E2F727
S11303408095822385BB0895442359F022B381E02C
S113035090E002C0880F991F6A95E2F7822B82BB56
S1130360089522B381E090E002C0880F991F6A9536
S1130370E2F78095822382BB08958FB780688FBF90
S113038008959BB790649BBF813069F028F0823058
S113039089F08330B1F01BC085B78E7F85BF85B7E8
S11303A08D7F85BF14C085B7816085BF85B78D7F7C
S11303B085BF0DC085B78E7F85BF85B7826085BF39
S11303C006C085B7816085BF85B7826085BF8EE32F
S11303D090E0909365008093640008959BB79068C3
S11303E09BBF813069F028F0823089F08330B1F00E
S11303F01BC085B78B7F85BF85B7877F85BF14C03A
S113040085B7846085BF85B7877F85BF0DC085B7F5
S11304108B7F85BF85B7886085BF06C085B784603C
S113042085BF85B7886085BF8AE690E090936300B6
S11304308093620008951F920F920FB60F921124B9
S11304402F933F934F935F936F937F938F939F93D8
S1130450AF93BF93EF93FF93E0916400F091650035
S1130460309709F00995FF91EF91BF91AF919F915A
S11304708F917F916F915F914F913F912F910F9049
S11304800FBE0F901F9018951F920F920FB60F92E8
S113049011242F933F934F935F936F937F938F9385
S11304A09F93AF93BF93EF93FF93E0916200F0911A
S11304B06300309709F00995FF91EF91BF91AF91D7
S11304C09F918F917F916F915F914F913F912F9168
S11304D00F900FBE0F901F9018951F920F920FB69A
S11304E00F9211242F933F934F935F936F937F93B6
S11304F08F939F93AF93BF93EF93FF93E09160002B
S1130500F0916100309709F00995FF91EF91BF9147
S1130510AF919F918F917F916F915F914F913F9197
S11305202F910F900FBE0F901F901895F894FFCF46
S9030000FC
