:100000000C9432000C94DC000C9405010C942E012D
:100010000C9444000C9444000C9444000C94440050
:100020000C9444000C9444000C9444000C94440040
:100030000C9444000C9444000C9444000C94440030
:100040000C9444000C9444000C9444000C94440020
:100050000C944400A001AA01B401BE01C801D20160
:10006000DC01E60111241FBECFE5D8E0DEBFCDBF25
:1000700020E0A0E6B0E001C01D92A636B207E1F78D
:100080000E9455000C94F6010C94000083E00E943D
:10009000570182E00E947B0181E00E94960141E0CD
:1000A00063E081E00E946F0008950E94460080E0B6
:1000B00008C08CBFEFECF7E03197F1F700C000000B
:1000C0008F5F8F3FB1F708C08CBFEFECF7E031973F
:1000D000F1F700C0000081508230B0F7E8CF8130E6
:1000E00001F130F08230B1F1833009F44CC0089551
:1000F000442359F02AB381E090E002C0880F991F91
:100100006A95E2F7822B8ABB08952AB381E090E0DA
:1001100002C0880F991F6A95E2F7809582238ABBF7
:100120000895442359F027B381E090E002C0880F7E
:10013000991F6A95E2F7822B87BB089527B381E068
:1001400090E002C0880F991F6A95E2F7809582239C
:1001500087BB0895442359F024B381E090E002C0A6
:10016000880F991F6A95E2F7822B84BB089524B308
:1001700081E090E002C0880F991F6A95E2F78095B0
:10018000822384BB0895442359F021B381E090E099
:1001900002C0880F991F6A95E2F7822B81BB0895F0
:1001A00021B381E090E002C0880F991F6A95E2F7C1
:1001B0008095822381BB08951F920F920FB60F92F4
:1001C00011242F933F934F935F936F937F938F935C
:1001D0009F93AF93BF93EF93FF93E0916400F091EF
:1001E0006500309709F00995FF91EF91BF91AF91AC
:1001F0009F918F917F916F915F914F913F912F913F
:100200000F900FBE0F901F9018951F920F920FB670
:100210000F9211242F933F934F935F936F937F938C
:100220008F939F93AF93BF93EF93FF93E0916200FF
:10023000F0916300309709F00995FF91EF91BF911C
:10024000AF919F918F917F916F915F914F913F916E
:100250002F910F900FBE0F901F9018951F920F9225
:100260000FB60F9211242F933F934F935F936F9389
:100270007F938F939F93AF93BF93EF93FF93E091FF
:100280006000F0916100309709F00995FF91EF91BE
:10029000BF91AF919F918F917F916F915F914F919E
:1002A0003F912F910F900FBE0F901F9018958130A6
:1002B000A1F028F0823051F08330B1F0089583B777
:1002C0008F7B83BF83B7877F83BF089583B78064A5
:1002D00083BF83B7877F83BF089583B78F7B83BF37
:1002E00083B7886083BF089583B7806483BF83B773
:1002F000886083BF0895823059F0833081F0811186
:1003000014C083B78F7E83BF83B78F7D83BF08956B
:1003100083B78F7E83BF83B7806283BF089583B71F
:10032000806183BF83B7806283BF089590E0883087
:10033000910508F054C0FC01E65DFF4F0C94F001FC
:1003400083B78E7F83BF83B78D7F83BF83B78B7F58
:1003500083BF089583B7816083BF83B78D7F83BFD9
:1003600083B78B7F83BF089583B78E7F83BF83B7A7
:10037000826083BF83B78B7F83BF089583B781601B
:1003800083BF83B7826083BF83B78B7F83BF0895AA
:1003900083B78E7F83BF83B78D7F83BF83B784602E
:1003A00083BF089583B7816083BF83B78D7F83BF89
:1003B00083B7846083BF089583B78E7F83BF83B77D
:1003C000826083BF83B7846083BF089583B78160F1
:1003D00083BF83B7826083BF83B7846083BF089580
:1003E000EE0FFF1F0590F491E02D0994F894FFCFD4
:00000001FF
